:100000000C945D000C9485000C9485000C94850084
:100010000C9485000C9485000C9485000C9485004C
:100020000C9485000C9485000C9485000C9485003C
:100030000C9485000C9485000C9485000C9485002C
:100040000C9420010C9485000C94DF030C94110493
:100050000C9485000C9485000C9485000C9485000C
:100060000C9485000C94850000000008000201003B
:100070000003040700000000000000000102040863
:100080001020408001020408102001020408102002
:10009000040404040404040402020202020203032E
:1000A0000303030300000000250028002B000000CC
:1000B0000000240027002A00410411241FBECFEFB6
:1000C000D8E0DEBFCDBF11E0A0E0B1E0E6E9F1E1AC
:1000D00002C005900D92A033B107D9F723E0A0E349
:1000E000B1E001C01D92A135B207E1F710E0CAEB03
:1000F000D0E004C02297FE010E948D06C83BD107C4
:10010000C9F70E9459060C94C9080C94000061E0DC
:10011000809108010E942B0261E0809106010E94FB
:100120002B0260E08DE00E94640226E040E855E288
:1001300060E070E080EB92E00E947D03E0E3F1E09C
:10014000119282E0E73AF807D9F70895209130013B
:1001500088E190E020FD07C00000000000000000E2
:10016000000000000000000000002695019791F7B4
:100170000895CF92DF92EF92FF920F931F93CF9348
:10018000DF9300D000D000D0CDB7DEB7F0903001C3
:1001900060E271E0CE0101960E94060608E010E0E0
:1001A000F0FE03C06AE071E002C06CE071E0CE01D5
:1001B00001960E944806F6940150110989F7BE0184
:1001C0006F5F7F4F80EB92E00E94DB04F8940E9407
:1001D0006A016B017C010E94A6000E946A01AB01CA
:1001E000BC0178944C195D096E097F09445051098E
:1001F0006109710984E0440F551F661F771F8A95B6
:10020000D1F72AE030E080EB92E00E9486056AE5B3
:1002100070E080E090E00E948D01CE0101960E9486
:10022000980526960FB6F894DEBF0FBECDBFDF91BE
:10023000CF911F910F91FF90EF90DF90CF90089595
:100240001F920F920FB60F9211242F933F938F930B
:100250009F93AF93BF938091A8029091A902A09120
:10026000AA02B091AB023091A70223E0230F2D37F1
:1002700020F40196A11DB11D05C026E8230F0296AA
:10028000A11DB11D2093A7028093A8029093A902FB
:10029000A093AA02B093AB028091AC029091AD0200
:1002A000A091AE02B091AF020196A11DB11D809345
:1002B000AC029093AD02A093AE02B093AF02BF9197
:1002C000AF919F918F913F912F910F900FBE0F9003
:1002D0001F9018953FB7F8948091AC029091AD02B1
:1002E000A091AE02B091AF0226B5A89B05C02F3FEA
:1002F00019F00196A11DB11D3FBF6627782F892FE8
:100300009A2F620F711D811D911D42E0660F771FAC
:10031000881F991F4A95D1F708958F929F92AF92A7
:10032000BF92CF92DF92EF92FF926B017C010E940D
:100330006A014B015C01C114D104E104F104F1F044
:100340000E9468060E946A01681979098A099B0956
:10035000683E73408105910570F321E0C21AD1080F
:10036000E108F10888EE880E83E0981EA11CB11CFC
:10037000C114D104E104F10429F7DDCFFF90EF901F
:10038000DF90CF90BF90AF909F908F90089578941A
:1003900084B5826084BD84B5816084BD85B582608A
:1003A00085BD85B5816085BDEEE6F0E08081816028
:1003B0008083E1E8F0E01082808182608083808128
:1003C00081608083E0E8F0E0808181608083E1EB00
:1003D000F0E0808184608083E0EBF0E080818160E8
:1003E0008083EAE7F0E0808184608083808182609E
:1003F0008083808181608083808180688083109287
:10040000C1000895833081F028F4813099F0823062
:10041000A1F008958730A9F08830B9F08430D1F484
:10042000809180008F7D03C0809180008F778093C2
:100430008000089584B58F7702C084B58F7D84BD18
:1004400008958091B0008F7703C08091B0008F7DB8
:100450008093B0000895CF93DF9390E0FC01E458BF
:10046000FF4F2491FC01E057FF4F8491882349F10D
:1004700090E0880F991FFC01E255FF4FA591B491C0
:100480008C559F4FFC01C591D4919FB7611108C055
:10049000F8948C91209582238C93888182230AC0C2
:1004A000623051F4F8948C91322F309583238C93E1
:1004B0008881822B888304C0F8948C91822B8C9342
:1004C0009FBFDF91CF9108950F931F93CF93DF9339
:1004D0001F92CDB7DEB7282F30E0F901E859FF4F62
:1004E0008491F901E458FF4F1491F901E057FF4F4F
:1004F00004910023C9F0882321F069830E9402023D
:100500006981E02FF0E0EE0FFF1FEC55FF4FA59142
:10051000B4919FB7F8948C91611103C01095812319
:1005200001C0812B8C939FBF0F90DF91CF911F91C2
:100530000F910895FC01818D228D90E0805C9F4F8A
:10054000821B91098F7399270895FC01918D828DEB
:10055000981731F0828DE80FF11D858D90E0089598
:100560008FEF9FEF0895FC01918D828D981761F0B8
:10057000828DDF01A80FB11D5D968C91928D9F5FDA
:100580009F73928F90E008958FEF9FEF089587E318
:1005900094E0892B49F080E090E0892B29F00E94BB
:1005A000370481110C9400000895FC01848DDF0153
:1005B000A80FB11DA35ABF4F2C91848D90E00196D6
:1005C0008F739927848FA689B7892C93A089B189C5
:1005D0008C9180648C93938D848D981306C00288CF
:1005E000F389E02D80818F7D80830895CF93DF9301
:1005F000EC01888D8823C9F0EA89FB89808185FD1B
:1006000005C0A889B9898C9186FD0FC00FB607FC7B
:10061000F5CF808185FFF2CFA889B9898C9185FFBC
:10062000EDCFCE010E94D502E7CFDF91CF910895A3
:10063000CF92DF92FF920F931F93CF93DF931F927E
:10064000CDB7DEB76C0181E0D60158968C935897F0
:100650005B969C915B975C968C915C97981307C016
:100660005096ED91FC915197808185FD2EC0F60149
:10067000038D10E00F5F1F4F0F731127F02EF6014F
:10068000848DF81211C00FB607FCF9CFD601509631
:10069000ED91FC915197808185FFF1CFC60169836F
:1006A0000E94D5026981EBCF838DE80FF11DE35ADB
:1006B000FF4F6083D6015B960C935B975296ED914A
:1006C000FC915397808180620CC0D6015696ED91C3
:1006D000FC91579760835096ED91FC9151978081E2
:1006E0008064808381E090E00F90DF91CF911F9133
:1006F0000F91FF90DF90CF900895BF92CF92DF923D
:10070000EF92FF92CF93DF93EC016A017B01B22E4F
:10071000E889F98982E08083411581EE58076105F7
:100720007105A1F060E079E08DE390E0A70196010A
:100730000E94690621503109410951095695479592
:1007400037952795211580E1380798F0E889F989D0
:10075000108260E874E88EE190E0A70196010E94A3
:100760006906215031094109510956954795379538
:100770002795EC85FD853083EE85FF852083188ED7
:10078000EC89FD89B082EA89FB8980818061808360
:10079000EA89FB89808188608083EA89FB8980817E
:1007A00080688083EA89FB8980818F7D8083DF91E7
:1007B000CF91FF90EF90DF90CF90BF9008951F9260
:1007C0000F920FB60F9211242F938F939F93EF9355
:1007D000FF93E091C002F091C1028081E091C602D6
:1007E000F091C70282FD12C090818091C9028F5F93
:1007F0008F732091CA02821751F0E091C902F0E094
:10080000E055FD4F958F8093C90201C08081FF9113
:10081000EF919F918F912F910F900FBE0F901F908E
:1008200018951F920F920FB60F9211242F933F939A
:100830004F935F936F937F938F939F93AF93BF93E8
:10084000EF93FF9380EB92E00E94D502FF91EF912E
:10085000BF91AF919F918F917F916F915F914F91D8
:100860003F912F910F900FBE0F901F90189580EB26
:1008700092E00E949A0221E0892B09F420E0822F65
:1008800008951092B3021092B20288EE93E0A0E0B5
:10089000B0E08093B4029093B502A093B602B093F7
:1008A000B70282E191E09093B1028093B00285ECAF
:1008B00090E09093BD028093BC0284EC90E0909312
:1008C000BF028093BE0280EC90E09093C1028093BF
:1008D000C00281EC90E09093C3028093C20282EC4C
:1008E00090E09093C5028093C40286EC90E09093D0
:1008F000C7028093C6021092C9021092CA021092D7
:10090000CB021092CC020895CF92DF92EF92FF9229
:100910000F931F93CF93DF937C016A01EB0100E0FB
:1009200010E00C151D0571F06991D701ED91FC9156
:100930000190F081E02DC7010995892B19F00F5F17
:100940001F4FEFCFC801DF91CF911F910F91FF9003
:10095000EF90DF90CF9008956115710581F0DB0174
:100960000D900020E9F7AD0141505109461B570B8E
:10097000DC01ED91FC910280F381E02D099480E08F
:1009800090E00895DC01ED91FC91DB0114964D910E
:100990005C9115976D917C910280F381E02D099413
:1009A000DC01ED91FC910190F081E02D09946EE164
:1009B00071E00C94AC040F931F93CF93DF93EC0181
:1009C0000E94C2048C01CE010E94D704800F911FA7
:1009D000DF91CF911F910F9108958F929F92AF92C7
:1009E000BF92DF92EF92FF920F931F93CF93DF930B
:1009F000CDB7DEB7A1970FB6F894DEBF0FBECDBF5F
:100A00007C01F42FD52ECB0119A2223008F42AE064
:100A10008E010F5D1F4F822E912CA12CB12C6F2FB8
:100A20007D2DA50194010E946906F22FD32ECA01E3
:100A3000015011096A3014F4E0E301C0E7E3E60F66
:100A4000D801EC93232B242B252B49F7B801C701A0
:100A50000E94AC04A1960FB6F894DEBF0FBECDBFC6
:100A6000DF91CF911F910F91FF90EF90DF90BF909A
:100A7000AF909F908F900895CF92DF92EF92FF9268
:100A80000F931F93CF93DF93EC016A017B01211534
:100A9000310579F4E881F9810190F081E02D642F2E
:100AA000DF91CF911F910F91FF90EF90DF90CF904A
:100AB00009942A303105E9F477FF1AC06DE20E94EB
:100AC000D0048C0144275527BA014C195D096E09E1
:100AD0007F092AE0CE010E94ED04800F911FDF9173
:100AE000CF911F910F91FF90EF90DF90CF900895DD
:100AF0002AE0B701A601CE01DF91CF911F910F919E
:100B0000FF90EF90DF90CF900C94ED040F931F9324
:100B1000CF93DF93EC010E943C058C01CE010E9433
:100B2000D704800F911FDF91CF911F910F910895EE
:100B3000FC01808191810C942907CF93DF93EC0114
:100B400088819981009711F00E94290719821882E3
:100B50001D821C821B821A82DF91CF9108950F9310
:100B60001F93CF93DF93EC018B016F5F7F4F8881E1
:100B700099810E94B807009731F0998388831B837D
:100B80000A8381E001C080E0DF91CF911F910F9136
:100B90000895CF93DF93EC0188819981892B29F007
:100BA0008A819B818617970760F4CE010E94AF056A
:100BB000882341F08C819D81892B19F4E881F9818A
:100BC000108281E0DF91CF910895EF92FF920F9311
:100BD0001F93CF93DF93EC017B018A01BA010E943E
:100BE000C905811104C0CE010E949D0507C01D8367
:100BF0000C83B701888199810E948B08CE01DF9117
:100C0000CF911F910F91FF90EF900895FC011182F9
:100C1000108213821282158214826115710559F0B7
:100C2000FB0101900020E9F7AF0141505109461B3B
:100C3000570B0C94E5050895EF92FF920F931F93C5
:100C4000CF93DF93EC017B010C811D816115710550
:100C500011F480E016C04115510591F0040F151FE5
:100C6000B8010E94C9058823A1F3288139818C81AC
:100C70009D81B701820F931F0E948B081D830C83F7
:100C800081E0DF91CF911F910F91FF90EF90089538
:100C90006115710559F0FB0101900020E9F7AF01E2
:100CA00041505109461B570B0C941C0680E00895D7
:100CB00008950E94C7010E9458060E948700C7EC51
:100CC000D2E00E94B9002097E1F30E94C702F9CF59
:100CD0000895A1E21A2EAA1BBB1BFD010DC0AA1F7D
:100CE000BB1FEE1FFF1FA217B307E407F50720F095
:100CF000A21BB30BE40BF50B661F771F881F991F10
:100D00001A9469F760957095809590959B01AC0158
:100D1000BD01CF010895EE0FFF1F0590F491E02D66
:100D20000994CF93DF938230910510F482E090E034
:100D3000E0914F03F091500320E030E0A0E0B0E0FC
:100D4000309739F14081518148175907B8F0481759
:100D5000590771F482819381109729F013969C931F
:100D60008E9312972CC09093500380934F0327C00B
:100D70002115310531F04217530718F0A901DB01A5
:100D800001C0EF019A01BD01DF010280F381E02D76
:100D9000D7CF21153105F9F0281B390B2430310547
:100DA00080F48A819B816115710521F0FB01938399
:100DB000828304C09093500380934F03FE013296C8
:100DC00044C0FE01E20FF31F819391932250310939
:100DD000398328833AC020914D0330914E03232B51
:100DE00041F4209102013091030130934E0320938E
:100DF0004D0320910001309101012115310541F48D
:100E00002DB73EB74091040150910501241B350BCD
:100E1000E0914D03F0914E03E217F307A0F42E1B6F
:100E20003F0B2817390778F0AC014E5F5F4F24174E
:100E3000350748F04E0F5F1F50934E0340934D030C
:100E40008193919302C0E0E0F0E0CF01DF91CF9178
:100E50000895CF93DF93009709F487C0FC01329780
:100E600013821282C0914F03D0915003209781F4D6
:100E700020813181280F391F80914D0390914E03BD
:100E80008217930779F5F0934E03E0934D036DC0FD
:100E9000DE0120E030E0AE17BF0750F412964D910E
:100EA0005C9113979D014115510509F1DA01F3CFCA
:100EB000B383A28340815181840F951F8A179B07BA
:100EC00071F48D919C911197840F951F02969183D7
:100ED000808312968D919C91139793838283211521
:100EE000310529F4F0935003E0934F033EC0D9013C
:100EF0001396FC93EE9312974D915D91A40FB51F3D
:100F0000EA17FB0779F480819181840F951F02967F
:100F1000D90111969C938E938281938113969C9311
:100F20008E931297E0E0F0E08A819B81009719F0A0
:100F3000FE01EC01F9CFCE01029628813981820FA2
:100F4000931F20914D0330914E032817390769F400
:100F5000309729F41092500310924F0302C013826D
:100F60001282D0934E03C0934D03DF91CF91089529
:100F7000A0E0B0E0EEEBF7E00C949608EC01CB01BA
:100F8000209719F40E949106B8C0FE01E60FF71FE2
:100F90009E0122503109E217F30708F4ACC0D901D1
:100FA0000D911C91119706171707B8F00530110520
:100FB00008F49FC0A801445051094617570708F488
:100FC00098C002501109061B170B019311936D93E2
:100FD0007C93CF010E9429078CC05B01A01AB10A43
:100FE0004E01800E911EA0914F03B0915003612CD1
:100FF000712C60E070E0109709F449C0A815B9059C
:10100000C9F5ED90FC901197670142E0C40ED11C28
:10101000CA14DB0478F147018A189B08640142E096
:10102000C40ED11C1296BC9012971396AC91B5E0E9
:10103000CB16D10440F0B282A38391828082D90181
:101040008D939C9309C00E5F1F4F0E0D1F1DF9015C
:1010500011830083EB2DFA2F6115710531F0DB014F
:101060001396FC93EE93129744C0F0935003E093D1
:101070004F033FC06D917C9111976616770608F477
:101080003B01BD0112960D90BC91A02DB4CF609193
:101090004D0370914E0368157905E9F468167906D9
:1010A000D0F440910001509101014115510541F4E6
:1010B0004DB75EB76091040170910501461B570B57
:1010C000E417F507C0F4F0934E03E0934D03F901E4
:1010D000918380830EC00E9491067C01009759F095
:1010E000A801BE010E948208CE010E942907C70103
:1010F00004C0CE0102C080E090E0CDB7DEB7EEE0E4
:101100000C94B208FB01DC0102C001900D92415029
:101110005040D8F70895FB01DC0101900D920020AA
:10112000E1F708952F923F924F925F926F927F92D4
:101130008F929F92AF92BF92CF92DF92EF92FF92E7
:101140000F931F93CF93DF93CDB7DEB7CA1BDB0B93
:101150000FB6F894DEBF0FBECDBF09942A88398838
:1011600048885F846E847D848C849B84AA84B9843F
:10117000C884DF80EE80FD800C811B81AA81B9814B
:10118000CE0FD11D0FB6F894DEBF0FBECDBFED015F
:061190000895F894FFCF62
:101196000000510380000D00030031003000000004
:1011A6000000180384049A02B302A502F6020D0A8F
:1011B600006E616E00696E66006F7666002E000036
:00000001FF
